{
  "contractName": "LandRecord",
  "abi": [
    {
      "inputs": [],
      "name": "result",
      "outputs": [
        {
          "internalType": "uint256",
          "name": "",
          "type": "uint256"
        }
      ],
      "stateMutability": "view",
      "type": "function",
      "constant": true
    },
    {
      "inputs": [
        {
          "internalType": "uint256",
          "name": "a",
          "type": "uint256"
        },
        {
          "internalType": "uint256",
          "name": "b",
          "type": "uint256"
        }
      ],
      "name": "Addition",
      "outputs": [
        {
          "internalType": "uint256",
          "name": "",
          "type": "uint256"
        }
      ],
      "stateMutability": "nonpayable",
      "type": "function"
    }
  ],
  "bytecode": "0x608060405234801561001057600080fd5b5061020e806100206000396000f3fe608060405234801561001057600080fd5b50600436106100365760003560e01c8063653721471461003b578063ee33149014610059575b600080fd5b610043610089565b60405161005091906100c7565b60405180910390f35b610073600480360381019061006e9190610113565b61008f565b60405161008091906100c7565b60405180910390f35b60005481565b6000818361009d9190610182565b600081905550600054905092915050565b6000819050919050565b6100c1816100ae565b82525050565b60006020820190506100dc60008301846100b8565b92915050565b600080fd5b6100f0816100ae565b81146100fb57600080fd5b50565b60008135905061010d816100e7565b92915050565b6000806040838503121561012a576101296100e2565b5b6000610138858286016100fe565b9250506020610149858286016100fe565b9150509250929050565b7f4e487b7100000000000000000000000000000000000000000000000000000000600052601160045260246000fd5b600061018d826100ae565b9150610198836100ae565b9250827fffffffffffffffffffffffffffffffffffffffffffffffffffffffffffffffff038211156101cd576101cc610153565b5b82820190509291505056fea26469706673582212208472c0028954a9aeae44c0ddf8c371c614490c0625a233e81c0c8d638efbb9ea64736f6c634300080f0033",
  "immutableReferences": {},
  "source": "// SPDX-License-Identifier: MIT\npragma solidity >=0.4.22 <0.9.0;\n\ncontract LandRecord{\n    uint public result;\n\n    function Addition(uint a, uint b) public returns(uint) {\n        result = a + b;\n        return result;\n    }\n\n}",
  "sourcePath": "/home/ankur/Desktop/projects/office/landrecords/contracts/LandRecord.sol",
  "compiler": {
    "name": "solc",
    "version": "0.8.15+commit.e14f2714.Emscripten.clang"
  },
  "schemaVersion": "3.4.8",
  "updatedAt": "2022-12-24T10:22:50.909Z",
  "networkType": "ethereum",
  "devdoc": {
    "kind": "dev",
    "methods": {},
    "version": 1
  },
  "userdoc": {
    "kind": "user",
    "methods": {},
    "version": 1
  }
}